:02000000A62830
:10000800FF00030E8301AE000A08AD008A017008E4
:10001800A0002308A1002408A2000B1D5D28851458
:1000280005142708003A031D2C282608223EF00054
:1000380001300318013EF1007008A3007108A40004
:100048006A208A110A12860085100130A7003D280F
:100058002808223EF00001300318013EF100700824
:10006800A3007108A4006A208A110A1286000510EC
:10007800A7012A08003A031D5C282B08013EF0005E
:1000880000300318013E2C07F1007008AB0071081E
:10009800AC0080302C06F00080307002031D56281A
:1000A80007302B02031C5C28AB01AC010130A50012
:1000B8000B112108A3002208A4002008F0002D0835
:0C00C8008A002E0E8300FF0E7F0E090040
:0E00D4008312031324088A0023088200080008
:1000E2006A208A110A128000840AA30A0319A40A48
:0800F200F003031D7128080052
:1000FA0083120313F8010830FC00700DF80D740820
:10010A00F80203188A28F8070310F00DFC0B82285E
:02011A000800DB
:10011C000630831603139F00860183128601831613
:10012C008510051083128514051483160814881481
:10013C000815843081008B170B178B160B110800D8
:10014C0083120313A501A601A701A801A901AA0105
:10015C00AB01AC018E208312081CCD283430FC007E
:10016C00F130FD00FD0BB828FC0BB8280000000096
:10017C00081CCD280130AA00633029020318CA28B4
:10018C00290AF0007008A900081CCD28CA28881C70
:10019C00E8283430FC00F130FD00FD0BD328FC0BBB
:1001AC00D32800000000881CE8280130AA00290888
:1001BC00003C0318E5282903F0007008A900881CEE
:1001CC00E828E528081DFC283430FC00F130FD003F
:1001DC00FD0BEE28FC0BEE2800000000081DFC288F
:1001EC00AA01AB01AC01081DFC28F9282A08003A29
:1001FC00031D0E292508013A031D0E29A501290A04
:10020C00F0007008A9002908633C03180E29A90105
:10021C008B130A30F4002908F0007D207008A6002A
:10022C000A30F4002908F0007D207808F0007008EE
:08023C00A8008B17B12821294D
:100244003F3406345B344F3466346D347D340734C4
:040254007F346F3450
:02400E004A2F37
:00000001FF
